{
  "_format": "hh-sol-artifact-1",
  "contractName": "MyTokenV1",
  "sourceName": "contracts/MyTokenV1.sol",
  "abi": [
    {
      "inputs": [],
      "stateMutability": "nonpayable",
      "type": "constructor"
    },
    {
      "anonymous": false,
      "inputs": [
        {
          "indexed": false,
          "internalType": "address",
          "name": "previousAdmin",
          "type": "address"
        },
        {
          "indexed": false,
          "internalType": "address",
          "name": "newAdmin",
          "type": "address"
        }
      ],
      "name": "AdminChanged",
      "type": "event"
    },
    {
      "anonymous": false,
      "inputs": [
        {
          "indexed": true,
          "internalType": "address",
          "name": "owner",
          "type": "address"
        },
        {
          "indexed": true,
          "internalType": "address",
          "name": "spender",
          "type": "address"
        },
        {
          "indexed": false,
          "internalType": "uint256",
          "name": "value",
          "type": "uint256"
        }
      ],
      "name": "Approval",
      "type": "event"
    },
    {
      "anonymous": false,
      "inputs": [
        {
          "indexed": true,
          "internalType": "address",
          "name": "beacon",
          "type": "address"
        }
      ],
      "name": "BeaconUpgraded",
      "type": "event"
    },
    {
      "anonymous": false,
      "inputs": [
        {
          "indexed": true,
          "internalType": "address",
          "name": "previousOwner",
          "type": "address"
        },
        {
          "indexed": true,
          "internalType": "address",
          "name": "newOwner",
          "type": "address"
        }
      ],
      "name": "OwnershipTransferred",
      "type": "event"
    },
    {
      "anonymous": false,
      "inputs": [
        {
          "indexed": true,
          "internalType": "address",
          "name": "from",
          "type": "address"
        },
        {
          "indexed": true,
          "internalType": "address",
          "name": "to",
          "type": "address"
        },
        {
          "indexed": false,
          "internalType": "uint256",
          "name": "value",
          "type": "uint256"
        }
      ],
      "name": "Transfer",
      "type": "event"
    },
    {
      "anonymous": false,
      "inputs": [
        {
          "indexed": true,
          "internalType": "address",
          "name": "implementation",
          "type": "address"
        }
      ],
      "name": "Upgraded",
      "type": "event"
    },
    {
      "inputs": [
        {
          "internalType": "address",
          "name": "owner",
          "type": "address"
        },
        {
          "internalType": "address",
          "name": "spender",
          "type": "address"
        }
      ],
      "name": "allowance",
      "outputs": [
        {
          "internalType": "uint256",
          "name": "",
          "type": "uint256"
        }
      ],
      "stateMutability": "view",
      "type": "function"
    },
    {
      "inputs": [
        {
          "internalType": "address",
          "name": "spender",
          "type": "address"
        },
        {
          "internalType": "uint256",
          "name": "amount",
          "type": "uint256"
        }
      ],
      "name": "approve",
      "outputs": [
        {
          "internalType": "bool",
          "name": "",
          "type": "bool"
        }
      ],
      "stateMutability": "nonpayable",
      "type": "function"
    },
    {
      "inputs": [
        {
          "internalType": "address",
          "name": "account",
          "type": "address"
        }
      ],
      "name": "balanceOf",
      "outputs": [
        {
          "internalType": "uint256",
          "name": "",
          "type": "uint256"
        }
      ],
      "stateMutability": "view",
      "type": "function"
    },
    {
      "inputs": [
        {
          "internalType": "address",
          "name": "account",
          "type": "address"
        },
        {
          "internalType": "uint256",
          "name": "amount",
          "type": "uint256"
        }
      ],
      "name": "burn",
      "outputs": [],
      "stateMutability": "nonpayable",
      "type": "function"
    },
    {
      "inputs": [],
      "name": "decimals",
      "outputs": [
        {
          "internalType": "uint8",
          "name": "",
          "type": "uint8"
        }
      ],
      "stateMutability": "view",
      "type": "function"
    },
    {
      "inputs": [
        {
          "internalType": "address",
          "name": "spender",
          "type": "address"
        },
        {
          "internalType": "uint256",
          "name": "subtractedValue",
          "type": "uint256"
        }
      ],
      "name": "decreaseAllowance",
      "outputs": [
        {
          "internalType": "bool",
          "name": "",
          "type": "bool"
        }
      ],
      "stateMutability": "nonpayable",
      "type": "function"
    },
    {
      "inputs": [
        {
          "internalType": "address",
          "name": "spender",
          "type": "address"
        },
        {
          "internalType": "uint256",
          "name": "addedValue",
          "type": "uint256"
        }
      ],
      "name": "increaseAllowance",
      "outputs": [
        {
          "internalType": "bool",
          "name": "",
          "type": "bool"
        }
      ],
      "stateMutability": "nonpayable",
      "type": "function"
    },
    {
      "inputs": [],
      "name": "initialize",
      "outputs": [],
      "stateMutability": "nonpayable",
      "type": "function"
    },
    {
      "inputs": [
        {
          "internalType": "address",
          "name": "account",
          "type": "address"
        },
        {
          "internalType": "uint256",
          "name": "amount",
          "type": "uint256"
        }
      ],
      "name": "mint",
      "outputs": [],
      "stateMutability": "nonpayable",
      "type": "function"
    },
    {
      "inputs": [],
      "name": "name",
      "outputs": [
        {
          "internalType": "string",
          "name": "",
          "type": "string"
        }
      ],
      "stateMutability": "view",
      "type": "function"
    },
    {
      "inputs": [],
      "name": "owner",
      "outputs": [
        {
          "internalType": "address",
          "name": "",
          "type": "address"
        }
      ],
      "stateMutability": "view",
      "type": "function"
    },
    {
      "inputs": [],
      "name": "renounceOwnership",
      "outputs": [],
      "stateMutability": "nonpayable",
      "type": "function"
    },
    {
      "inputs": [],
      "name": "symbol",
      "outputs": [
        {
          "internalType": "string",
          "name": "",
          "type": "string"
        }
      ],
      "stateMutability": "view",
      "type": "function"
    },
    {
      "inputs": [],
      "name": "totalSupply",
      "outputs": [
        {
          "internalType": "uint256",
          "name": "",
          "type": "uint256"
        }
      ],
      "stateMutability": "view",
      "type": "function"
    },
    {
      "inputs": [
        {
          "internalType": "address",
          "name": "recipient",
          "type": "address"
        },
        {
          "internalType": "uint256",
          "name": "amount",
          "type": "uint256"
        }
      ],
      "name": "transfer",
      "outputs": [
        {
          "internalType": "bool",
          "name": "",
          "type": "bool"
        }
      ],
      "stateMutability": "nonpayable",
      "type": "function"
    },
    {
      "inputs": [
        {
          "internalType": "address",
          "name": "sender",
          "type": "address"
        },
        {
          "internalType": "address",
          "name": "recipient",
          "type": "address"
        },
        {
          "internalType": "uint256",
          "name": "amount",
          "type": "uint256"
        }
      ],
      "name": "transferFrom",
      "outputs": [
        {
          "internalType": "bool",
          "name": "",
          "type": "bool"
        }
      ],
      "stateMutability": "nonpayable",
      "type": "function"
    },
    {
      "inputs": [
        {
          "internalType": "address",
          "name": "newOwner",
          "type": "address"
        }
      ],
      "name": "transferOwnership",
      "outputs": [],
      "stateMutability": "nonpayable",
      "type": "function"
    },
    {
      "inputs": [
        {
          "internalType": "address",
          "name": "newImplementation",
          "type": "address"
        }
      ],
      "name": "upgradeTo",
      "outputs": [],
      "stateMutability": "nonpayable",
      "type": "function"
    },
    {
      "inputs": [
        {
          "internalType": "address",
          "name": "newImplementation",
          "type": "address"
        },
        {
          "internalType": "bytes",
          "name": "data",
          "type": "bytes"
        }
      ],
      "name": "upgradeToAndCall",
      "outputs": [],
      "stateMutability": "payable",
      "type": "function"
    }
  ],
  "bytecode": "0x60a06040523073ffffffffffffffffffffffffffffffffffffffff1660809073ffffffffffffffffffffffffffffffffffffffff1660601b8152503480156200004757600080fd5b50600060019054906101000a900460ff16806200006f575060008054906101000a900460ff16155b620000b1576040517f08c379a0000000000000000000000000000000000000000000000000000000008152600401620000a89062000152565b60405180910390fd5b60008060019054906101000a900460ff16159050801562000102576001600060016101000a81548160ff02191690831515021790555060016000806101000a81548160ff0219169083151502179055505b8015620001245760008060016101000a81548160ff0219169083151502179055505b50620001d4565b60006200013a602e8362000174565b9150620001478262000185565b604082019050919050565b600060208201905081810360008301526200016d816200012b565b9050919050565b600082825260208201905092915050565b7f496e697469616c697a61626c653a20636f6e747261637420697320616c72656160008201527f647920696e697469616c697a6564000000000000000000000000000000000000602082015250565b60805160601c6138136200020860003960008181610646015281816106d50152818161092b01526109ba01526138136000f3fe6080604052600436106101145760003560e01c806370a08231116100a05780639dc29fac116100645780639dc29fac14610380578063a457c2d7146103a9578063a9059cbb146103e6578063dd62ed3e14610423578063f2fde38b1461046057610114565b806370a08231146102bf578063715018a6146102fc5780638129fc1c146103135780638da5cb5b1461032a57806395d89b411461035557610114565b8063313ce567116100e7578063313ce567146101e95780633659cfe614610214578063395093511461023d57806340c10f191461027a5780634f1ef286146102a357610114565b806306fdde0314610119578063095ea7b31461014457806318160ddd1461018157806323b872dd146101ac575b600080fd5b34801561012557600080fd5b5061012e610489565b60405161013b9190612b2c565b60405180910390f35b34801561015057600080fd5b5061016b60048036038101906101669190612787565b61051b565b6040516101789190612b11565b60405180910390f35b34801561018d57600080fd5b50610196610539565b6040516101a39190612d8e565b60405180910390f35b3480156101b857600080fd5b506101d360048036038101906101ce91906126e4565b610543565b6040516101e09190612b11565b60405180910390f35b3480156101f557600080fd5b506101fe61063b565b60405161020b9190612da9565b60405180910390f35b34801561022057600080fd5b5061023b6004803603810190610236919061267f565b610644565b005b34801561024957600080fd5b50610264600480360381019061025f9190612787565b6107f3565b6040516102719190612b11565b60405180910390f35b34801561028657600080fd5b506102a1600480360381019061029c9190612787565b61089f565b005b6102bd60048036038101906102b89190612733565b610929565b005b3480156102cb57600080fd5b506102e660048036038101906102e1919061267f565b610a66565b6040516102f39190612d8e565b60405180910390f35b34801561030857600080fd5b50610311610aaf565b005b34801561031f57600080fd5b50610328610b37565b005b34801561033657600080fd5b5061033f610cbe565b60405161034c9190612af6565b60405180910390f35b34801561036157600080fd5b5061036a610ce8565b6040516103779190612b2c565b60405180910390f35b34801561038c57600080fd5b506103a760048036038101906103a29190612787565b610d7a565b005b3480156103b557600080fd5b506103d060048036038101906103cb9190612787565b610e04565b6040516103dd9190612b11565b60405180910390f35b3480156103f257600080fd5b5061040d60048036038101906104089190612787565b610eef565b60405161041a9190612b11565b60405180910390f35b34801561042f57600080fd5b5061044a600480360381019061044591906126a8565b610f0d565b6040516104579190612d8e565b60405180910390f35b34801561046c57600080fd5b506104876004803603810190610482919061267f565b610f94565b005b60606036805461049890613138565b80601f01602080910402602001604051908101604052809291908181526020018280546104c490613138565b80156105115780601f106104e657610100808354040283529160200191610511565b820191906000526020600020905b8154815290600101906020018083116104f457829003601f168201915b5050505050905090565b600061052f61052861108c565b8484611094565b6001905092915050565b6000603554905090565b600061055084848461125f565b6000603460008673ffffffffffffffffffffffffffffffffffffffff1673ffffffffffffffffffffffffffffffffffffffff168152602001908152602001600020600061059b61108c565b73ffffffffffffffffffffffffffffffffffffffff1673ffffffffffffffffffffffffffffffffffffffff1681526020019081526020016000205490508281101561061b576040517f08c379a000000000000000000000000000000000000000000000000000000000815260040161061290612c8e565b60405180910390fd5b61062f8561062761108c565b858403611094565b60019150509392505050565b60006012905090565b7f000000000000000000000000000000000000000000000000000000000000000073ffffffffffffffffffffffffffffffffffffffff163073ffffffffffffffffffffffffffffffffffffffff1614156106d3576040517f08c379a00000000000000000000000000000000000000000000000000000000081526004016106ca90612bee565b60405180910390fd5b7f000000000000000000000000000000000000000000000000000000000000000073ffffffffffffffffffffffffffffffffffffffff166107126114e3565b73ffffffffffffffffffffffffffffffffffffffff1614610768576040517f08c379a000000000000000000000000000000000000000000000000000000000815260040161075f90612c2e565b60405180910390fd5b6107718161153a565b6107f081600067ffffffffffffffff8111156107b6577f4e487b7100000000000000000000000000000000000000000000000000000000600052604160045260246000fd5b6040519080825280601f01601f1916602001820160405280156107e85781602001600182028036833780820191505090505b5060006115b9565b50565b600061089561080061108c565b84846034600061080e61108c565b73ffffffffffffffffffffffffffffffffffffffff1673ffffffffffffffffffffffffffffffffffffffff16815260200190815260200160002060008873ffffffffffffffffffffffffffffffffffffffff1673ffffffffffffffffffffffffffffffffffffffff168152602001908152602001600020546108909190612e4c565b611094565b6001905092915050565b6108a761108c565b73ffffffffffffffffffffffffffffffffffffffff166108c5610cbe565b73ffffffffffffffffffffffffffffffffffffffff161461091b576040517f08c379a000000000000000000000000000000000000000000000000000000000815260040161091290612cae565b60405180910390fd5b610925828261178a565b5050565b7f000000000000000000000000000000000000000000000000000000000000000073ffffffffffffffffffffffffffffffffffffffff163073ffffffffffffffffffffffffffffffffffffffff1614156109b8576040517f08c379a00000000000000000000000000000000000000000000000000000000081526004016109af90612bee565b60405180910390fd5b7f000000000000000000000000000000000000000000000000000000000000000073ffffffffffffffffffffffffffffffffffffffff166109f76114e3565b73ffffffffffffffffffffffffffffffffffffffff1614610a4d576040517f08c379a0000000000000000000000000000000000000000000000000000000008152600401610a4490612c2e565b60405180910390fd5b610a568261153a565b610a62828260016115b9565b5050565b6000603360008373ffffffffffffffffffffffffffffffffffffffff1673ffffffffffffffffffffffffffffffffffffffff168152602001908152602001600020549050919050565b610ab761108c565b73ffffffffffffffffffffffffffffffffffffffff16610ad5610cbe565b73ffffffffffffffffffffffffffffffffffffffff1614610b2b576040517f08c379a0000000000000000000000000000000000000000000000000000000008152600401610b2290612cae565b60405180910390fd5b610b3560006118eb565b565b600060019054906101000a900460ff1680610b5d575060008054906101000a900460ff16155b610b9c576040517f08c379a0000000000000000000000000000000000000000000000000000000008152600401610b9390612c4e565b60405180910390fd5b60008060019054906101000a900460ff161590508015610bec576001600060016101000a81548160ff02191690831515021790555060016000806101000a81548160ff0219169083151502179055505b610c606040518060400160405280600781526020017f4d79546f6b656e000000000000000000000000000000000000000000000000008152506040518060400160405280600381526020017f4d544b00000000000000000000000000000000000000000000000000000000008152506119b1565b610c68611a9e565b610c70611b87565b610c9a33610c7c61063b565b600a610c889190612ef5565b6103e8610c959190613013565b61178a565b8015610cbb5760008060016101000a81548160ff0219169083151502179055505b50565b600060c960009054906101000a900473ffffffffffffffffffffffffffffffffffffffff16905090565b606060378054610cf790613138565b80601f0160208091040260200160405190810160405280929190818152602001828054610d2390613138565b8015610d705780601f10610d4557610100808354040283529160200191610d70565b820191906000526020600020905b815481529060010190602001808311610d5357829003601f168201915b5050505050905090565b610d8261108c565b73ffffffffffffffffffffffffffffffffffffffff16610da0610cbe565b73ffffffffffffffffffffffffffffffffffffffff1614610df6576040517f08c379a0000000000000000000000000000000000000000000000000000000008152600401610ded90612cae565b60405180910390fd5b610e008282611c70565b5050565b60008060346000610e1361108c565b73ffffffffffffffffffffffffffffffffffffffff1673ffffffffffffffffffffffffffffffffffffffff16815260200190815260200160002060008573ffffffffffffffffffffffffffffffffffffffff1673ffffffffffffffffffffffffffffffffffffffff16815260200190815260200160002054905082811015610ed0576040517f08c379a0000000000000000000000000000000000000000000000000000000008152600401610ec790612d4e565b60405180910390fd5b610ee4610edb61108c565b85858403611094565b600191505092915050565b6000610f03610efc61108c565b848461125f565b6001905092915050565b6000603460008473ffffffffffffffffffffffffffffffffffffffff1673ffffffffffffffffffffffffffffffffffffffff16815260200190815260200160002060008373ffffffffffffffffffffffffffffffffffffffff1673ffffffffffffffffffffffffffffffffffffffff16815260200190815260200160002054905092915050565b610f9c61108c565b73ffffffffffffffffffffffffffffffffffffffff16610fba610cbe565b73ffffffffffffffffffffffffffffffffffffffff1614611010576040517f08c379a000000000000000000000000000000000000000000000000000000000815260040161100790612cae565b60405180910390fd5b600073ffffffffffffffffffffffffffffffffffffffff168173ffffffffffffffffffffffffffffffffffffffff161415611080576040517f08c379a000000000000000000000000000000000000000000000000000000000815260040161107790612bae565b60405180910390fd5b611089816118eb565b50565b600033905090565b600073ffffffffffffffffffffffffffffffffffffffff168373ffffffffffffffffffffffffffffffffffffffff161415611104576040517f08c379a00000000000000000000000000000000000000000000000000000000081526004016110fb90612d2e565b60405180910390fd5b600073ffffffffffffffffffffffffffffffffffffffff168273ffffffffffffffffffffffffffffffffffffffff161415611174576040517f08c379a000000000000000000000000000000000000000000000000000000000815260040161116b90612bce565b60405180910390fd5b80603460008573ffffffffffffffffffffffffffffffffffffffff1673ffffffffffffffffffffffffffffffffffffffff16815260200190815260200160002060008473ffffffffffffffffffffffffffffffffffffffff1673ffffffffffffffffffffffffffffffffffffffff168152602001908152602001600020819055508173ffffffffffffffffffffffffffffffffffffffff168373ffffffffffffffffffffffffffffffffffffffff167f8c5be1e5ebec7d5bd14f71427d1e84f3dd0314c0f7b2291e5b200ac8c7c3b925836040516112529190612d8e565b60405180910390a3505050565b600073ffffffffffffffffffffffffffffffffffffffff168373ffffffffffffffffffffffffffffffffffffffff1614156112cf576040517f08c379a00000000000000000000000000000000000000000000000000000000081526004016112c690612d0e565b60405180910390fd5b600073ffffffffffffffffffffffffffffffffffffffff168273ffffffffffffffffffffffffffffffffffffffff16141561133f576040517f08c379a000000000000000000000000000000000000000000000000000000000815260040161133690612b4e565b60405180910390fd5b61134a838383611e49565b6000603360008573ffffffffffffffffffffffffffffffffffffffff1673ffffffffffffffffffffffffffffffffffffffff168152602001908152602001600020549050818110156113d1576040517f08c379a00000000000000000000000000000000000000000000000000000000081526004016113c890612c0e565b60405180910390fd5b818103603360008673ffffffffffffffffffffffffffffffffffffffff1673ffffffffffffffffffffffffffffffffffffffff1681526020019081526020016000208190555081603360008573ffffffffffffffffffffffffffffffffffffffff1673ffffffffffffffffffffffffffffffffffffffff16815260200190815260200160002060008282546114669190612e4c565b925050819055508273ffffffffffffffffffffffffffffffffffffffff168473ffffffffffffffffffffffffffffffffffffffff167fddf252ad1be2c89b69c2b068fc378daa952ba7f163c4a11628f55a4df523b3ef846040516114ca9190612d8e565b60405180910390a36114dd848484611e4e565b50505050565b60006115117f360894a13ba1a3210667c828492db98dca3e2076cc3735a920a3ca505d382bbc60001b611e53565b60000160009054906101000a900473ffffffffffffffffffffffffffffffffffffffff16905090565b61154261108c565b73ffffffffffffffffffffffffffffffffffffffff16611560610cbe565b73ffffffffffffffffffffffffffffffffffffffff16146115b6576040517f08c379a00000000000000000000000000000000000000000000000000000000081526004016115ad90612cae565b60405180910390fd5b50565b60006115c36114e3565b90506115ce84611e5d565b6000835111806115db5750815b156115ec576115ea8484611f16565b505b600061161a7f4910fdfa16fed3260ed0e7147f7cc6da11a60208b5b9406d12a635614ffd914360001b611ffa565b90508060000160009054906101000a900460ff166117835760018160000160006101000a81548160ff0219169083151502179055506116e685836040516024016116649190612af6565b6040516020818303038152906040527f3659cfe6000000000000000000000000000000000000000000000000000000007bffffffffffffffffffffffffffffffffffffffffffffffffffffffff19166020820180517bffffffffffffffffffffffffffffffffffffffffffffffffffffffff8381831617835250505050611f16565b5060008160000160006101000a81548160ff02191690831515021790555061170c6114e3565b73ffffffffffffffffffffffffffffffffffffffff168273ffffffffffffffffffffffffffffffffffffffff1614611779576040517f08c379a000000000000000000000000000000000000000000000000000000000815260040161177090612b8e565b60405180910390fd5b61178285612004565b5b5050505050565b600073ffffffffffffffffffffffffffffffffffffffff168273ffffffffffffffffffffffffffffffffffffffff1614156117fa576040517f08c379a00000000000000000000000000000000000000000000000000000000081526004016117f190612d6e565b60405180910390fd5b61180660008383611e49565b80603560008282546118189190612e4c565b9250508190555080603360008473ffffffffffffffffffffffffffffffffffffffff1673ffffffffffffffffffffffffffffffffffffffff168152602001908152602001600020600082825461186e9190612e4c565b925050819055508173ffffffffffffffffffffffffffffffffffffffff16600073ffffffffffffffffffffffffffffffffffffffff167fddf252ad1be2c89b69c2b068fc378daa952ba7f163c4a11628f55a4df523b3ef836040516118d39190612d8e565b60405180910390a36118e760008383611e4e565b5050565b600060c960009054906101000a900473ffffffffffffffffffffffffffffffffffffffff1690508160c960006101000a81548173ffffffffffffffffffffffffffffffffffffffff021916908373ffffffffffffffffffffffffffffffffffffffff1602179055508173ffffffffffffffffffffffffffffffffffffffff168173ffffffffffffffffffffffffffffffffffffffff167f8be0079c531659141344cd1fd0a4f28419497f9722a3daafe3b4186f6b6457e060405160405180910390a35050565b600060019054906101000a900460ff16806119d7575060008054906101000a900460ff16155b611a16576040517f08c379a0000000000000000000000000000000000000000000000000000000008152600401611a0d90612c4e565b60405180910390fd5b60008060019054906101000a900460ff161590508015611a66576001600060016101000a81548160ff02191690831515021790555060016000806101000a81548160ff0219169083151502179055505b611a6e612053565b611a78838361212c565b8015611a995760008060016101000a81548160ff0219169083151502179055505b505050565b600060019054906101000a900460ff1680611ac4575060008054906101000a900460ff16155b611b03576040517f08c379a0000000000000000000000000000000000000000000000000000000008152600401611afa90612c4e565b60405180910390fd5b60008060019054906101000a900460ff161590508015611b53576001600060016101000a81548160ff02191690831515021790555060016000806101000a81548160ff0219169083151502179055505b611b5b612053565b611b63612235565b8015611b845760008060016101000a81548160ff0219169083151502179055505b50565b600060019054906101000a900460ff1680611bad575060008054906101000a900460ff16155b611bec576040517f08c379a0000000000000000000000000000000000000000000000000000000008152600401611be390612c4e565b60405180910390fd5b60008060019054906101000a900460ff161590508015611c3c576001600060016101000a81548160ff02191690831515021790555060016000806101000a81548160ff0219169083151502179055505b611c4461231e565b611c4c6123f7565b8015611c6d5760008060016101000a81548160ff0219169083151502179055505b50565b600073ffffffffffffffffffffffffffffffffffffffff168273ffffffffffffffffffffffffffffffffffffffff161415611ce0576040517f08c379a0000000000000000000000000000000000000000000000000000000008152600401611cd790612cce565b60405180910390fd5b611cec82600083611e49565b6000603360008473ffffffffffffffffffffffffffffffffffffffff1673ffffffffffffffffffffffffffffffffffffffff16815260200190815260200160002054905081811015611d73576040517f08c379a0000000000000000000000000000000000000000000000000000000008152600401611d6a90612b6e565b60405180910390fd5b818103603360008573ffffffffffffffffffffffffffffffffffffffff1673ffffffffffffffffffffffffffffffffffffffff168152602001908152602001600020819055508160356000828254611dcb919061306d565b92505081905550600073ffffffffffffffffffffffffffffffffffffffff168373ffffffffffffffffffffffffffffffffffffffff167fddf252ad1be2c89b69c2b068fc378daa952ba7f163c4a11628f55a4df523b3ef84604051611e309190612d8e565b60405180910390a3611e4483600084611e4e565b505050565b505050565b505050565b6000819050919050565b611e66816124d0565b611ea5576040517f08c379a0000000000000000000000000000000000000000000000000000000008152600401611e9c90612c6e565b60405180910390fd5b80611ed27f360894a13ba1a3210667c828492db98dca3e2076cc3735a920a3ca505d382bbc60001b611e53565b60000160006101000a81548173ffffffffffffffffffffffffffffffffffffffff021916908373ffffffffffffffffffffffffffffffffffffffff16021790555050565b6060611f21836124d0565b611f60576040517f08c379a0000000000000000000000000000000000000000000000000000000008152600401611f5790612cee565b60405180910390fd5b6000808473ffffffffffffffffffffffffffffffffffffffff1684604051611f889190612adf565b600060405180830381855af49150503d8060008114611fc3576040519150601f19603f3d011682016040523d82523d6000602084013e611fc8565b606091505b5091509150611ff082826040518060600160405280602781526020016137b7602791396124e3565b9250505092915050565b6000819050919050565b61200d81611e5d565b8073ffffffffffffffffffffffffffffffffffffffff167fbc7cd75a20ee27fd9adebab32041f755214dbc6bffa90cc0225b39da2e5c2d3b60405160405180910390a250565b600060019054906101000a900460ff1680612079575060008054906101000a900460ff16155b6120b8576040517f08c379a00000000000000000000000000000000000000000000000000000000081526004016120af90612c4e565b60405180910390fd5b60008060019054906101000a900460ff161590508015612108576001600060016101000a81548160ff02191690831515021790555060016000806101000a81548160ff0219169083151502179055505b80156121295760008060016101000a81548160ff0219169083151502179055505b50565b600060019054906101000a900460ff1680612152575060008054906101000a900460ff16155b612191576040517f08c379a000000000000000000000000000000000000000000000000000000000815260040161218890612c4e565b60405180910390fd5b60008060019054906101000a900460ff1615905080156121e1576001600060016101000a81548160ff02191690831515021790555060016000806101000a81548160ff0219169083151502179055505b82603690805190602001906121f792919061254a565b50816037908051906020019061220e92919061254a565b5080156122305760008060016101000a81548160ff0219169083151502179055505b505050565b600060019054906101000a900460ff168061225b575060008054906101000a900460ff16155b61229a576040517f08c379a000000000000000000000000000000000000000000000000000000000815260040161229190612c4e565b60405180910390fd5b60008060019054906101000a900460ff1615905080156122ea576001600060016101000a81548160ff02191690831515021790555060016000806101000a81548160ff0219169083151502179055505b6122fa6122f561108c565b6118eb565b801561231b5760008060016101000a81548160ff0219169083151502179055505b50565b600060019054906101000a900460ff1680612344575060008054906101000a900460ff16155b612383576040517f08c379a000000000000000000000000000000000000000000000000000000000815260040161237a90612c4e565b60405180910390fd5b60008060019054906101000a900460ff1615905080156123d3576001600060016101000a81548160ff02191690831515021790555060016000806101000a81548160ff0219169083151502179055505b80156123f45760008060016101000a81548160ff0219169083151502179055505b50565b600060019054906101000a900460ff168061241d575060008054906101000a900460ff16155b61245c576040517f08c379a000000000000000000000000000000000000000000000000000000000815260040161245390612c4e565b60405180910390fd5b60008060019054906101000a900460ff1615905080156124ac576001600060016101000a81548160ff02191690831515021790555060016000806101000a81548160ff0219169083151502179055505b80156124cd5760008060016101000a81548160ff0219169083151502179055505b50565b600080823b905060008111915050919050565b606083156124f357829050612543565b6000835111156125065782518084602001fd5b816040517f08c379a000000000000000000000000000000000000000000000000000000000815260040161253a9190612b2c565b60405180910390fd5b9392505050565b82805461255690613138565b90600052602060002090601f01602090048101928261257857600085556125bf565b82601f1061259157805160ff19168380011785556125bf565b828001600101855582156125bf579182015b828111156125be5782518255916020019190600101906125a3565b5b5090506125cc91906125d0565b5090565b5b808211156125e95760008160009055506001016125d1565b5090565b60006126006125fb84612de9565b612dc4565b90508281526020810184848401111561261857600080fd5b6126238482856130f6565b509392505050565b60008135905061263a81613788565b92915050565b600082601f83011261265157600080fd5b81356126618482602086016125ed565b91505092915050565b6000813590506126798161379f565b92915050565b60006020828403121561269157600080fd5b600061269f8482850161262b565b91505092915050565b600080604083850312156126bb57600080fd5b60006126c98582860161262b565b92505060206126da8582860161262b565b9150509250929050565b6000806000606084860312156126f957600080fd5b60006127078682870161262b565b93505060206127188682870161262b565b92505060406127298682870161266a565b9150509250925092565b6000806040838503121561274657600080fd5b60006127548582860161262b565b925050602083013567ffffffffffffffff81111561277157600080fd5b61277d85828601612640565b9150509250929050565b6000806040838503121561279a57600080fd5b60006127a88582860161262b565b92505060206127b98582860161266a565b9150509250929050565b6127cc816130a1565b82525050565b6127db816130b3565b82525050565b60006127ec82612e1a565b6127f68185612e30565b9350612806818560208601613105565b80840191505092915050565b600061281d82612e25565b6128278185612e3b565b9350612837818560208601613105565b61284081613228565b840191505092915050565b6000612858602383612e3b565b915061286382613246565b604082019050919050565b600061287b602283612e3b565b915061288682613295565b604082019050919050565b600061289e602f83612e3b565b91506128a9826132e4565b604082019050919050565b60006128c1602683612e3b565b91506128cc82613333565b604082019050919050565b60006128e4602283612e3b565b91506128ef82613382565b604082019050919050565b6000612907602c83612e3b565b9150612912826133d1565b604082019050919050565b600061292a602683612e3b565b915061293582613420565b604082019050919050565b600061294d602c83612e3b565b91506129588261346f565b604082019050919050565b6000612970602e83612e3b565b915061297b826134be565b604082019050919050565b6000612993602d83612e3b565b915061299e8261350d565b604082019050919050565b60006129b6602883612e3b565b91506129c18261355c565b604082019050919050565b60006129d9602083612e3b565b91506129e4826135ab565b602082019050919050565b60006129fc602183612e3b565b9150612a07826135d4565b604082019050919050565b6000612a1f602683612e3b565b9150612a2a82613623565b604082019050919050565b6000612a42602583612e3b565b9150612a4d82613672565b604082019050919050565b6000612a65602483612e3b565b9150612a70826136c1565b604082019050919050565b6000612a88602583612e3b565b9150612a9382613710565b604082019050919050565b6000612aab601f83612e3b565b9150612ab68261375f565b602082019050919050565b612aca816130df565b82525050565b612ad9816130e9565b82525050565b6000612aeb82846127e1565b915081905092915050565b6000602082019050612b0b60008301846127c3565b92915050565b6000602082019050612b2660008301846127d2565b92915050565b60006020820190508181036000830152612b468184612812565b905092915050565b60006020820190508181036000830152612b678161284b565b9050919050565b60006020820190508181036000830152612b878161286e565b9050919050565b60006020820190508181036000830152612ba781612891565b9050919050565b60006020820190508181036000830152612bc7816128b4565b9050919050565b60006020820190508181036000830152612be7816128d7565b9050919050565b60006020820190508181036000830152612c07816128fa565b9050919050565b60006020820190508181036000830152612c278161291d565b9050919050565b60006020820190508181036000830152612c4781612940565b9050919050565b60006020820190508181036000830152612c6781612963565b9050919050565b60006020820190508181036000830152612c8781612986565b9050919050565b60006020820190508181036000830152612ca7816129a9565b9050919050565b60006020820190508181036000830152612cc7816129cc565b9050919050565b60006020820190508181036000830152612ce7816129ef565b9050919050565b60006020820190508181036000830152612d0781612a12565b9050919050565b60006020820190508181036000830152612d2781612a35565b9050919050565b60006020820190508181036000830152612d4781612a58565b9050919050565b60006020820190508181036000830152612d6781612a7b565b9050919050565b60006020820190508181036000830152612d8781612a9e565b9050919050565b6000602082019050612da36000830184612ac1565b92915050565b6000602082019050612dbe6000830184612ad0565b92915050565b6000612dce612ddf565b9050612dda828261316a565b919050565b6000604051905090565b600067ffffffffffffffff821115612e0457612e036131f9565b5b612e0d82613228565b9050602081019050919050565b600081519050919050565b600081519050919050565b600081905092915050565b600082825260208201905092915050565b6000612e57826130df565b9150612e62836130df565b9250827fffffffffffffffffffffffffffffffffffffffffffffffffffffffffffffffff03821115612e9757612e9661319b565b5b828201905092915050565b6000808291508390505b6001851115612eec57808604811115612ec857612ec761319b565b5b6001851615612ed75780820291505b8081029050612ee585613239565b9450612eac565b94509492505050565b6000612f00826130df565b9150612f0b836130e9565b9250612f387fffffffffffffffffffffffffffffffffffffffffffffffffffffffffffffffff8484612f40565b905092915050565b600082612f50576001905061300c565b81612f5e576000905061300c565b8160018114612f745760028114612f7e57612fad565b600191505061300c565b60ff841115612f9057612f8f61319b565b5b8360020a915084821115612fa757612fa661319b565b5b5061300c565b5060208310610133831016604e8410600b8410161715612fe25782820a905083811115612fdd57612fdc61319b565b5b61300c565b612fef8484846001612ea2565b925090508184048111156130065761300561319b565b5b81810290505b9392505050565b600061301e826130df565b9150613029836130df565b9250817fffffffffffffffffffffffffffffffffffffffffffffffffffffffffffffffff04831182151516156130625761306161319b565b5b828202905092915050565b6000613078826130df565b9150613083836130df565b9250828210156130965761309561319b565b5b828203905092915050565b60006130ac826130bf565b9050919050565b60008115159050919050565b600073ffffffffffffffffffffffffffffffffffffffff82169050919050565b6000819050919050565b600060ff82169050919050565b82818337600083830152505050565b60005b83811015613123578082015181840152602081019050613108565b83811115613132576000848401525b50505050565b6000600282049050600182168061315057607f821691505b60208210811415613164576131636131ca565b5b50919050565b61317382613228565b810181811067ffffffffffffffff82111715613192576131916131f9565b5b80604052505050565b7f4e487b7100000000000000000000000000000000000000000000000000000000600052601160045260246000fd5b7f4e487b7100000000000000000000000000000000000000000000000000000000600052602260045260246000fd5b7f4e487b7100000000000000000000000000000000000000000000000000000000600052604160045260246000fd5b6000601f19601f8301169050919050565b60008160011c9050919050565b7f45524332303a207472616e7366657220746f20746865207a65726f206164647260008201527f6573730000000000000000000000000000000000000000000000000000000000602082015250565b7f45524332303a206275726e20616d6f756e7420657863656564732062616c616e60008201527f6365000000000000000000000000000000000000000000000000000000000000602082015250565b7f45524331393637557067726164653a207570677261646520627265616b73206660008201527f7572746865722075706772616465730000000000000000000000000000000000602082015250565b7f4f776e61626c653a206e6577206f776e657220697320746865207a65726f206160008201527f6464726573730000000000000000000000000000000000000000000000000000602082015250565b7f45524332303a20617070726f766520746f20746865207a65726f20616464726560008201527f7373000000000000000000000000000000000000000000000000000000000000602082015250565b7f46756e6374696f6e206d7573742062652063616c6c6564207468726f7567682060008201527f64656c656761746563616c6c0000000000000000000000000000000000000000602082015250565b7f45524332303a207472616e7366657220616d6f756e742065786365656473206260008201527f616c616e63650000000000000000000000000000000000000000000000000000602082015250565b7f46756e6374696f6e206d7573742062652063616c6c6564207468726f7567682060008201527f6163746976652070726f78790000000000000000000000000000000000000000602082015250565b7f496e697469616c697a61626c653a20636f6e747261637420697320616c72656160008201527f647920696e697469616c697a6564000000000000000000000000000000000000602082015250565b7f455243313936373a206e657720696d706c656d656e746174696f6e206973206e60008201527f6f74206120636f6e747261637400000000000000000000000000000000000000602082015250565b7f45524332303a207472616e7366657220616d6f756e742065786365656473206160008201527f6c6c6f77616e6365000000000000000000000000000000000000000000000000602082015250565b7f4f776e61626c653a2063616c6c6572206973206e6f7420746865206f776e6572600082015250565b7f45524332303a206275726e2066726f6d20746865207a65726f2061646472657360008201527f7300000000000000000000000000000000000000000000000000000000000000602082015250565b7f416464726573733a2064656c65676174652063616c6c20746f206e6f6e2d636f60008201527f6e74726163740000000000000000000000000000000000000000000000000000602082015250565b7f45524332303a207472616e736665722066726f6d20746865207a65726f20616460008201527f6472657373000000000000000000000000000000000000000000000000000000602082015250565b7f45524332303a20617070726f76652066726f6d20746865207a65726f2061646460008201527f7265737300000000000000000000000000000000000000000000000000000000602082015250565b7f45524332303a2064656372656173656420616c6c6f77616e63652062656c6f7760008201527f207a65726f000000000000000000000000000000000000000000000000000000602082015250565b7f45524332303a206d696e7420746f20746865207a65726f206164647265737300600082015250565b613791816130a1565b811461379c57600080fd5b50565b6137a8816130df565b81146137b357600080fd5b5056fe416464726573733a206c6f772d6c6576656c2064656c65676174652063616c6c206661696c6564a26469706673582212206dfb958e6f9352ae439faab2fd242869ef2d88c2cf99a490163650d027444de964736f6c63430008020033",
  "linkReferences": {},
  "deployedLinkReferences": {}
}